{
  "contractName": "HelloWorld",
  "abi": [
    {
      "constant": true,
      "inputs": [],
      "name": "currentPrice",
      "outputs": [
        {
          "name": "",
          "type": "uint256"
        }
      ],
      "payable": false,
      "stateMutability": "view",
      "type": "function"
    },
    {
      "constant": true,
      "inputs": [],
      "name": "message",
      "outputs": [
        {
          "name": "",
          "type": "string"
        }
      ],
      "payable": false,
      "stateMutability": "view",
      "type": "function"
    },
    {
      "inputs": [
        {
          "name": "initMessage",
          "type": "string"
        }
      ],
      "payable": false,
      "stateMutability": "nonpayable",
      "type": "constructor"
    },
    {
      "constant": false,
      "inputs": [
        {
          "name": "newMessage",
          "type": "string"
        }
      ],
      "name": "update",
      "outputs": [
        {
          "name": "",
          "type": "string"
        }
      ],
      "payable": true,
      "stateMutability": "payable",
      "type": "function"
    },
    {
      "constant": true,
      "inputs": [],
      "name": "readMessage",
      "outputs": [
        {
          "name": "",
          "type": "string"
        }
      ],
      "payable": false,
      "stateMutability": "view",
      "type": "function"
    },
    {
      "constant": true,
      "inputs": [],
      "name": "readPrice",
      "outputs": [
        {
          "name": "",
          "type": "uint256"
        }
      ],
      "payable": false,
      "stateMutability": "view",
      "type": "function"
    }
  ],
  "bytecode": "0x608060405234801561001057600080fd5b506040516107bb3803806107bb8339818101604052602081101561003357600080fd5b81019080805164010000000081111561004b57600080fd5b8281019050602081018481111561006157600080fd5b815185600182028301116401000000008211171561007e57600080fd5b5050929190505050806000908051906020019061009c9291906100ab565b50600060018190555050610150565b828054600181600116156101000203166002900490600052602060002090601f016020900481019282601f106100ec57805160ff191683800117855561011a565b8280016001018555821561011a579182015b828111156101195782518255916020019190600101906100fe565b5b509050610127919061012b565b5090565b61014d91905b80821115610149576000816000905550600101610131565b5090565b90565b61065c8061015f6000396000f3fe60806040526004361061004a5760003560e01c8063031d5d011461004f5780633d7403a3146100df5780637e91400f146102135780639d1b464a1461023e578063e21f37ce14610269575b600080fd5b34801561005b57600080fd5b506100646102f9565b6040518080602001828103825283818151815260200191508051906020019080838360005b838110156100a4578082015181840152602081019050610089565b50505050905090810190601f1680156100d15780820380516001836020036101000a031916815260200191505b509250505060405180910390f35b610198600480360360208110156100f557600080fd5b810190808035906020019064010000000081111561011257600080fd5b82018360208201111561012457600080fd5b8035906020019184600183028401116401000000008311171561014657600080fd5b91908080601f016020809104026020016040519081016040528093929190818152602001838380828437600081840152601f19601f82011690508083019250505050505050919291929050505061039b565b6040518080602001828103825283818151815260200191508051906020019080838360005b838110156101d85780820151818401526020810190506101bd565b50505050905090810190601f1680156102055780820380516001836020036101000a031916815260200191505b509250505060405180910390f35b34801561021f57600080fd5b506102286104d4565b6040518082815260200191505060405180910390f35b34801561024a57600080fd5b506102536104de565b6040518082815260200191505060405180910390f35b34801561027557600080fd5b5061027e6104e4565b6040518080602001828103825283818151815260200191508051906020019080838360005b838110156102be5780820151818401526020810190506102a3565b50505050905090810190601f1680156102eb5780820380516001836020036101000a031916815260200191505b509250505060405180910390f35b606060008054600181600116156101000203166002900480601f0160208091040260200160405190810160405280929190818152602001828054600181600116156101000203166002900480156103915780601f1061036657610100808354040283529160200191610391565b820191906000526020600020905b81548152906001019060200180831161037457829003601f168201915b5050505050905090565b60606001543411610414576040517f08c379a00000000000000000000000000000000000000000000000000000000081526004018080602001828103825260148152602001807f496e73756666696369656e74207061796d656e7400000000000000000000000081525060200191505060405180910390fd5b346001819055508160009080519060200190610431929190610582565b5060008054600181600116156101000203166002900480601f0160208091040260200160405190810160405280929190818152602001828054600181600116156101000203166002900480156104c85780601f1061049d576101008083540402835291602001916104c8565b820191906000526020600020905b8154815290600101906020018083116104ab57829003601f168201915b50505050509050919050565b6000600154905090565b60015481565b60008054600181600116156101000203166002900480601f01602080910402602001604051908101604052809291908181526020018280546001816001161561010002031660029004801561057a5780601f1061054f5761010080835404028352916020019161057a565b820191906000526020600020905b81548152906001019060200180831161055d57829003601f168201915b505050505081565b828054600181600116156101000203166002900490600052602060002090601f016020900481019282601f106105c357805160ff19168380011785556105f1565b828001600101855582156105f1579182015b828111156105f05782518255916020019190600101906105d5565b5b5090506105fe9190610602565b5090565b61062491905b80821115610620576000816000905550600101610608565b5090565b9056fea265627a7a723058208cdcfa3036bac355672c5639627e80665f2d153ba12ae941d474e653159c579964736f6c634300050a0032",
  "source": "// Specifies that the source code is for a version\n// of Solidity greater than 0.5.10\npragma solidity ^0.5.9;\n\n// A contract is a collection of functions and data (its state)\n// that resides at a specific address on the Ethereum blockchain.\ncontract HelloWorld {\n\n    // The keyword \"public\" makes variables accessible from outside a contract\n    // and creates a function that other contracts or SDKs can call to access the value\n    string public message;\n    uint public currentPrice;\n\n    // A special function only run during the creation of the contract\n    constructor(string memory initMessage) public {\n        // Takes a string value and stores the value in the memory data storage area,\n        // setting `message` to that value\n        message = initMessage;\n        currentPrice = 0;\n    }\n\n    // A publicly accessible function that takes a string as a parameter\n    // and updates `message`\n    function update(string memory newMessage) public payable returns (string memory) {\n        require(\n            msg.value > currentPrice,\n            \"Insufficient payment\"\n        );\n        currentPrice = msg.value;\n        message = newMessage;\n        return message;\n    }\n\n    function readMessage() public view returns (string memory) {\n        return message;\n    }\n\n    function readPrice() public view returns (uint) {\n        return currentPrice;\n    }\n}\n",
  "sourcePath": "/Users/fabianscherer/Lernen/repos/dApps/hello-world-dApp/onchain/contracts/HelloWorld.sol",
  "compiler": {
    "name": "solc",
    "version": "0.5.10+commit.5a6ea5b1.Emscripten.clang"
  },
  "schemaVersion": "3.1.0",
  "updatedAt": "2020-04-18T20:24:52.085Z",
  "networkType": "ethereum",
  "devdoc": {
    "methods": {}
  },
  "userdoc": {
    "methods": {}
  }
}