{
  "contractName": "HelloWorld",
  "abi": [
    {
      "constant": true,
      "inputs": [],
      "name": "message",
      "outputs": [
        {
          "name": "",
          "type": "string"
        }
      ],
      "payable": false,
      "stateMutability": "view",
      "type": "function"
    },
    {
      "inputs": [
        {
          "name": "initMessage",
          "type": "string"
        }
      ],
      "payable": false,
      "stateMutability": "nonpayable",
      "type": "constructor"
    },
    {
      "constant": false,
      "inputs": [
        {
          "name": "newMessage",
          "type": "string"
        }
      ],
      "name": "update",
      "outputs": [
        {
          "name": "",
          "type": "string"
        }
      ],
      "payable": false,
      "stateMutability": "nonpayable",
      "type": "function"
    },
    {
      "constant": true,
      "inputs": [],
      "name": "read",
      "outputs": [
        {
          "name": "",
          "type": "string"
        }
      ],
      "payable": false,
      "stateMutability": "view",
      "type": "function"
    }
  ],
  "bytecode": "0x608060405234801561001057600080fd5b506040516106ac3803806106ac8339818101604052602081101561003357600080fd5b81019080805164010000000081111561004b57600080fd5b8281019050602081018481111561006157600080fd5b815185600182028301116401000000008211171561007e57600080fd5b5050929190505050806000908051906020019061009c9291906100a3565b5050610148565b828054600181600116156101000203166002900490600052602060002090601f016020900481019282601f106100e457805160ff1916838001178555610112565b82800160010185558215610112579182015b828111156101115782518255916020019190600101906100f6565b5b50905061011f9190610123565b5090565b61014591905b80821115610141576000816000905550600101610129565b5090565b90565b610555806101576000396000f3fe608060405234801561001057600080fd5b50600436106100415760003560e01c80633d7403a31461004657806357de26a41461017a578063e21f37ce146101fd575b600080fd5b6100ff6004803603602081101561005c57600080fd5b810190808035906020019064010000000081111561007957600080fd5b82018360208201111561008b57600080fd5b803590602001918460018302840111640100000000831117156100ad57600080fd5b91908080601f016020809104026020016040519081016040528093929190818152602001838380828437600081840152601f19601f820116905080830192505050505050509192919290505050610280565b6040518080602001828103825283818151815260200191508051906020019080838360005b8381101561013f578082015181840152602081019050610124565b50505050905090810190601f16801561016c5780820380516001836020036101000a031916815260200191505b509250505060405180910390f35b61018261033b565b6040518080602001828103825283818151815260200191508051906020019080838360005b838110156101c25780820151818401526020810190506101a7565b50505050905090810190601f1680156101ef5780820380516001836020036101000a031916815260200191505b509250505060405180910390f35b6102056103dd565b6040518080602001828103825283818151815260200191508051906020019080838360005b8381101561024557808201518184015260208101905061022a565b50505050905090810190601f1680156102725780820380516001836020036101000a031916815260200191505b509250505060405180910390f35b6060816000908051906020019061029892919061047b565b5060008054600181600116156101000203166002900480601f01602080910402602001604051908101604052809291908181526020018280546001816001161561010002031660029004801561032f5780601f106103045761010080835404028352916020019161032f565b820191906000526020600020905b81548152906001019060200180831161031257829003601f168201915b50505050509050919050565b606060008054600181600116156101000203166002900480601f0160208091040260200160405190810160405280929190818152602001828054600181600116156101000203166002900480156103d35780601f106103a8576101008083540402835291602001916103d3565b820191906000526020600020905b8154815290600101906020018083116103b657829003601f168201915b5050505050905090565b60008054600181600116156101000203166002900480601f0160208091040260200160405190810160405280929190818152602001828054600181600116156101000203166002900480156104735780601f1061044857610100808354040283529160200191610473565b820191906000526020600020905b81548152906001019060200180831161045657829003601f168201915b505050505081565b828054600181600116156101000203166002900490600052602060002090601f016020900481019282601f106104bc57805160ff19168380011785556104ea565b828001600101855582156104ea579182015b828111156104e95782518255916020019190600101906104ce565b5b5090506104f791906104fb565b5090565b61051d91905b80821115610519576000816000905550600101610501565b5090565b9056fea265627a7a7230582068658d881d4ea300672ecc18215ab6367baa774ac215591416a47dc4a72a198364736f6c634300050a0032",
  "source": "// Specifies that the source code is for a version\n// of Solidity greater than 0.5.10\npragma solidity ^0.5.10;\n\n// A contract is a collection of functions and data (its state)\n// that resides at a specific address on the Ethereum blockchain.\ncontract HelloWorld {\n\n    // The keyword \"public\" makes variables accessible from outside a contract\n    // and creates a function that other contracts or SDKs can call to access the value\n    string public message;\n\n    // A special function only run during the creation of the contract\n    constructor(string memory initMessage) public {\n        // Takes a string value and stores the value in the memory data storage area,\n        // setting `message` to that value\n        message = initMessage;\n    }\n\n    // A publicly accessible function that takes a string as a parameter\n    // and updates `message`\n    function update(string memory newMessage) public returns (string memory) {\n        message = newMessage;\n        return message;\n    }\n\n    function read() public view returns (string memory) {\n        return message;\n    }\n}\n",
  "sourcePath": "/Users/fabianscherer/Lernen/repos/dApps/hello-world-dApp/onchain/contracts/HelloWorld.sol",
  "compiler": {
    "name": "solc",
    "version": "0.5.10+commit.5a6ea5b1.Emscripten.clang"
  },
  "schemaVersion": "3.0.17",
  "updatedAt": "2020-04-14T18:54:25.942Z",
  "networkType": "ethereum",
  "devdoc": {
    "methods": {}
  },
  "userdoc": {
    "methods": {}
  }
}